:100000000C943C000C9459000C9459000C94590029
:100010000C94B8010C9459000C9459000C9459009C
:100020000C9459000C9459000C9459000C945900EC
:100030000C9459000C94AA010C9459000C9459008A
:100040000C9459000C9459000C9459000C945900CC
:100050000C9459000C9459000C9459000C945900BC
:100060000C9459000C94590000FF0100010000FF9E
:10007000FF0000010001FF0011241FBECFEFD8E0F8
:10008000DEBFCDBF11E0A0E0B1E0EAE8FEE002C0D3
:1000900005900D92A234B107D9F721E0A2E4B1E0B6
:1000A00001C01D92A335B207E1F70E94B3020C9480
:1000B00043070C9400008A3019F48DE00E945B0025
:1000C0009091C00095FFFCCF8093C60084EA809396
:1000D000BC008091BC0087FFFCCF8091B900887F75
:1000E000883051F08091B900887F803129F080916B
:1000F000B900887F90E0089590E080E008958093B3
:10010000BB0084E88093BC008091BC0087FFFCCFDB
:100110008091B900887F883151F08091B900887F43
:10012000803429F08091B900887F90E0089590E0B4
:1001300080E008952FB7F894909148018923909119
:1001400048019827909348012FBF08952FB7F8943E
:1001500090914701892390914701982790934701F7
:100160002FBF08952FB7F89490914601892390915D
:1001700046019827909346012FBF0895089508954A
:100180000F93FC017183608342833483238305834F
:1001900016820F910895DC01E6B196B116968C9106
:1001A00016978F70EE0FE4709170E92B24E0829F18
:1001B000C00111248A5E9E4FE80FF92FF11D808146
:1001C00016968C93807308959C0187B1806387B9DC
:1001D00088B1662379F0806388B987B18F7C87B94D
:1001E0002130310549F02230310551F088E4232BCC
:1001F00021F008958F7CF0CF88E18093B800F9CF8B
:100200008CE0FBCFFF920F931F93CF93DF93F82ED9
:100210008B01C42FD22F0E946600FC01892B19F597
:100220008F2D880F0E947F00FC01892BE1F4D801FB
:10023000A8014C0F511D94E84A175B07D9F08D9126
:100240008093BB009093BC008091BC0087FFFCCFE3
:100250008091B900887F883279F38091B900887FD6
:1002600059F3E82FF0E0CF01DF91CF911F910F916B
:10027000FF900895D111F7CF84E98093BC00F3CFAC
:100280000F931F93CF93DF93082FEB01142F0E943E
:1002900066009C01892BE9F5802F880F81600E9400
:1002A0007F009C01892BA9F5FE0170E060E0812FA1
:1002B0008150990BAC0194EC64177507ACF49093E2
:1002C000BC008091BC0087FFFCCF8091B900887F83
:1002D000803539F08091B900887F81936F5F7F4FBF
:1002E000EBCF8091BB00F9CFC40FD51F84E880937A
:1002F000BC008091BC0087FFFCCF8091B900887F53
:10030000883569F08091B900887F888384E980937B
:10031000BC00C901DF91CF911F910F910895809189
:10032000BB00F3CF1092C50087E68093C400E0ECD9
:10033000F0E080818D7F808386E08093C20088E139
:100340008093C10008958091C00087FFFCCF809109
:10035000C60008958F939F9381E0809342018CEDB6
:100360009FEF90938500809384009F918F911895C3
:100370000F920FB60F921F9211242F933F934F931A
:100380005F938F939F93EF93FF93CF93DF930F929E
:10039000CDB7DEB78091000194E0899FF001112470
:1003A000EF70E093000186B18983898140E081FD8F
:1003B00002C042E050E089818095282F2170242BD3
:1003C000E22BE09300010E2E000CFF0BE859FF4FCB
:1003D000E49180914901E80FE43064F01092490102
:1003E00080910101882351F0809101018150809317
:1003F000010104C0ED3F94F0E09349010F90DF91BB
:10040000CF91FF91EF919F918F915F914F913F918C
:100410002F911F900F900FBE0F90189510924901C9
:10042000809101018F3751F3809101018F5FDFCF00
:100430008CED9FEF90938500809384001092800054
:1004400085E08093810081E080936F000895E8E665
:10045000F0E0808182608083ECE6F0E08081836060
:10046000808308950E9418020E94270278940895BC
:100470001F93CF93DF93EC011E81113081F48885A7
:100480000E949A00882359F0EB81FC818081998534
:10049000892780838F8181278F8381E009C08E81A6
:1004A000823051F488850E94A60081110BC080E043
:1004B000DF91CF911F9108958430C9F788850E94FC
:1004C000B200F3CFEB81FC818081998589278083FD
:1004D0008F8191E08927E0CFCF92DF92EF92FF9258
:1004E0000F931F93CF93DF93EC017C016C0110E01D
:1004F00000E08E8D9F8D081719075CF5C6010E94DC
:1005000038029AE0C90ED11C811103C00F5F1F4F42
:10051000F0CF04301105ECF430E020E04E8D5F8D1B
:1005200024173507BCF4D7011396ED91FC9114976D
:1005300019969C9140810217130741F4942B9083E4
:100540002F5F3F4FBAE0EB0EF11CE8CF909594235C
:10055000F6CF80E0DF91CF911F910F91FF90EF9048
:10056000DF90CF900895CDB7DEB7C457D1090FB64D
:10057000F894DEBF0FBECDBF85B1876085B988B165
:10058000806388B98BB18C6E8BB9249A239A3A9A7E
:1005900025982298219820983898399857985698F5
:1005A0005598539852980E94320261E081E090E0A1
:1005B0000E94E4000E94920182E091E09093500139
:1005C00080934F0169E270E07AA369A342E04BA3F4
:1005D00025E431E03DA32CA3B7E0BEA384E08FA3C4
:1005E00018A689A750E85AA77CA76BA7A3E0ADA7D8
:1005F0003FA72EA706E008AB89AB1AAA98E09BABF1
:1006000010E41CAB7EAB6DABE5E0EFAB39AF28AFD0
:10061000EAAF8BAF1CAEE0E2EDAFEEAFE3E0F0E0AF
:100620002196FFAFEEAF21977A8369830B833D83D9
:100630002C838E838F831886198710E11A877C8715
:100640006B87BD873F872E87A88B898B1A8A5B8B28
:100650009C8B63E270E07E8B6D8B1F8A398F288FB5
:100660004A8F91E09B8F1C8E9D8F8E8FF8A3EF8F0A
:10067000E1961FAEE197AB967FAF6EAFAB97AC96AE
:100680009FAFAC97AE963FAF2EAFAE97AF969FAFF2
:10069000AF97E0969FAFE097E2964FAFE297E39671
:1006A0004FAFE397A7961FAEA797A1967FAF6EAF08
:1006B000A197A2964FAFA297A4963FAF2EAFA49753
:1006C000A5961FAEA597A6969FAFA697A8968FAFA3
:1006D000A897A9969FAFA99780E9809345018E01BD
:1006E0000F5B1F4FD8011D921C92FE01ED5BFF4F67
:1006F0008CE1DF011D928A95E9F7F12CE12CB12CF8
:10070000A12C2EE2C22E21E0D22E909042019920FF
:10071000E1F31092420153B1A0914C015A27452FA9
:10072000409536B1F0914B013F27232F209599B189
:10073000E0914A019E27792F709570901501842FC2
:1007400087218095809315016091140146234827E5
:100750004093140180901301822F8821809580930B
:100760001301609112012623282720931201B091D2
:100770001101672F6B236095609311018091100127
:1007800087238627809310015729509545233829C0
:10079000309523239B2B909589235A2F54275093D0
:1007A0004C013F2F322730934B019E2F9827909377
:1007B0004A01609148014523462B409348014091EE
:1007C00047012323242B20934701209146018923AD
:1007D000822B80934601CE0181960E946C02CE014D
:1007E00001960E946C02CE0187599F4F0E943802E9
:1007F000CE01815A9F4F0E943802C7018F709927FE
:10080000892B09F04EC080914501712CA81619F072
:10081000A0904501792C809101018B1509F445C008
:10082000B0900101A7968FADA7978B2C8823D9F0A4
:10083000EFE590E2892E8B0CEB1510F48FE7882EF4
:10084000B81489F01F928F92DF92CF921F930F936B
:100850000E946D041F930F930E9459040FB6F894E1
:10086000DEBF0FBECDBF992071F0E4968FAEE49746
:10087000E596AFAEE59720E042E0BE016D587F4FB0
:1008800080E10E940201772061F09A2D88E090FDBE
:100890000EC02C982B9A2B9896958150C1F7429AAE
:1008A0004298BFEFEB1AFB0A30CF972CBBCF2C9AA4
:1008B000F1CFB0E0A0E0EFE5F4E00C941C07FE01FE
:1008C000359661917191AF0180914F0190915001E6
:1008D0000E949004E2E00C943807AEE0B0E0E3E759
:1008E000F4E00C941A070D891E8986E08C831A8324
:1008F00009838FEF9FE79E838D83AE01475E5F4F35
:100900006F89788DCE0101960E9490042F813885E1
:10091000020F131FF80110822E96E4E00C943607A4
:10092000AFE0B0E0E6E9F4E00C940C077C013B0199
:100930008A01DC0117961C921E92169713968C91D1
:1009400081FFC3C19AE0292EFE0131964F01D701E4
:1009500013969C91F30193FD859193FF81913F0143
:10096000882309F448C1853239F493FD859193FFBA
:1009700081913F01853229F4B70190E00E947E0603
:10098000E6CFB12C412C512CBFE1B51538F08B329C
:1009900009F188F4803201F1833221F157FC3AC029
:1009A00020ED280F2A3040F556FE1FC0B29C200DC6
:1009B0001124B22E06C08D3291F0803379F76894FD
:1009C00050F8F30193FD859193FF81913F018111CF
:1009D000DBCF20C0689451F8689452F8F2CF689445
:1009E00053F8EFCF689454F8ECCF429C200D1124BB
:1009F000422E689455F8E5CF8E3229F456FCFBC0A0
:100A0000689456F8DECF8C3619F4689457F8D9CF2D
:100A10008836B9F2982F9F7D95549330C0F0833675
:100A2000A1F18337C1F1833509F05BC0D801CD90C6
:100A3000DD908D016B2D70E056FC02C06FEF7FEFF3
:100A4000C6010E9468065C01689457F80AC00C5FF2
:100A50001F4FEFE3E983AA24A394B12C6401E89427
:100A600057F853FC04C04A141B0409F018F5342C41
:100A7000A114B10431F5332009F469CFB70180E244
:100A800090E00E947E063A94F6CFD8018C9189833B
:100A90000E5F1F4FE0CFF801C190D1908F016B2DF9
:100AA00070E056FC02C06FEF7FEFC6010E94730634
:100AB0005C01D5CFB70180E290E00E947E064A94A7
:100AC000D2CFF60157FC859157FE81916F01B70196
:100AD00090E00E947E0631103A94B1E0AB1AB10862
:100AE000C7CF843619F0893609F074C0F80157FE73
:100AF0006AC061917191819191918F01E52DEF769D
:100B0000DE2E97FF09C090958095709561957F4F77
:100B10008F4F9F4F6894D7F82AE030E0A4010E94DD
:100B2000AE06C82EC818AC2C5D2CD6FE0CC0E894BE
:100B300050F8CB1440F4D4FE05C0D2FC03C05D2DA8
:100B40005E7E552EAB2C54FE98C0FE01EC0DF11DBF
:100B50008081803309F08AC0652D697E562E752DFF
:100B60007870372E53FC98C050FE92C0BC2CA41451
:100B700018F44C0CB42CBA1854FE94C0B70180E39E
:100B800090E00E947E0652FE09C088E790E051FE88
:100B900002C088E590E0B7010E947E06CB1408F4FD
:100BA0008DC0CA94D12C8FEFC81AD80AC80CD91C92
:100BB000D6018E916D01B70190E00E947E068C14E3
:100BC0009D04B1F758CF61917191072E000C880BED
:100BD000990B93CFD52CE894D4F82AE030E08537F0
:100BE00039F1F52DF97FDF2E8037A9F058F48835DB
:100BF000A9F08F36D9F0F701868197812F96E2E12F
:100C00000C9428078837B9F7D4FE02C06894D2F84C
:100C100020E130E00DC06894D4F8F6CF54FE03C054
:100C20002F2F2660D22E20E132E002C028E030E0F3
:100C3000F801D7FE15C041915191619171914C8796
:100C40005D876E877F878F01A4016C857D858E858A
:100C50009F850E94AE06C82EC818E894D7F863CFC7
:100C600081919191AC0170E060E0E9CF52FC02C04B
:100C7000A39475CFA394A39472CF852D867809F49D
:100C80006ECFF6CFB70180E290E00E947E06A3947B
:100C9000A414C0F3312C70CF342C3A18A41408F4E7
:100CA0006BCFF8CF852D867809F478CF8BE251FE93
:100CB00080E257FC8DE2B70190E06ECFB70180E390
:100CC00090E00E947E06BA9469CF8FEF9FEF96CF97
:100CD000FC010590615070400110D8F78095909507
:100CE0008E0F9F1F0895FC0161507040019001100C
:100CF000D8F7809590958E0F9F1F08950F931F939F
:100D0000CF93DF93182F092FEB018B8181FD09C051
:100D10001FEF0FEF812F902FDF91CF911F910F9138
:100D2000089582FF14C02E813F818C819D812817F8
:100D300039073CF4E881F981CF01019699838883D2
:100D400010838E819F8101969F838E83E3CFE885F8
:100D5000F985812F0995892BA1F3DACFFA01AA270A
:100D6000283051F1203181F1E8946F936E7F6E5FEE
:100D70007F4F8F4F9F4FAF4FB1E03ED0B4E03CD09C
:100D8000670F781F891F9A1FA11D680F791F8A1F7F
:100D9000911DA11D6A0F711D811D911DA11D20D0E6
:100DA00009F468943F912AE0269F11243019305DA0
:100DB0003193DEF6CF010895462F4770405D419391
:100DC000B3E00FD0C9F7F6CF462F4F70405D4A33DE
:100DD00018F0495D31FD4052419302D0A9F7EACFA6
:100DE000B4E0A6959795879577956795BA95C9F7D5
:100DF00000976105710508959B01AC010A2E0694C8
:100E00005795479537952795BA95C9F7620F731F80
:100E1000841F951FA01D08952F923F924F925F92BD
:100E20006F927F928F929F92AF92BF92CF92DF92FA
:100E3000EF92FF920F931F93CF93DF93CDB7DEB75F
:100E4000CA1BDB0B0FB6F894DEBF0FBECDBF0994F3
:100E50002A88398848885F846E847D848C849B844A
:100E6000AA84B984C884DF80EE80FD800C811B8158
:100E7000AA81B981CE0FD11D0FB6F894DEBF0FBE87
:0A0E8000CDBFED010895F894FFCFF7
:100E8A00037F00000002000000005B000000000079
:100E9A00FFFFFFFFFFFF030201002300010013020F
:100EAA000000030504000303041003050320617412
:100EBA0074656E756174696F6E3A200925640D0A4E
:020ECA00000026
:00000001FF
