:100000000C9445000C946D000C946D000C949602B9
:100010000C94BA020C946D000C946D000C946D005D
:100020000C946D000C946D000C946D000C946D009C
:100030000C946D000C949B010C946D000C946D005D
:100040000C946D000C946D000C946D000C946D007C
:100050000C946D000C946D000C946D000C946D006C
:100060000C946D000C946D0000FF0100010000FF76
:10007000FF0000010001FF0000FF0100010000FF80
:10008000FF0000010001FF00450511241FBECFEF56
:10009000D8E0DEBFCDBF11E0A0E0B1E0E2EAFAE0D7
:1000A00002C005900D92AE31B107D9F721E0AEE163
:1000B000B1E001C01D92A935B207E1F710E0C5E437
:1000C000D0E004C02197FE010E944905C434D10745
:1000D000C9F70E94CA030C944F050C94000084EAEF
:1000E0008093BC008091BC0087FFFCCF8091B90059
:1000F000887F883051F08091B900887F803129F065
:100100008091B900887F90E0089590E080E00895A4
:100110008093BB0084E88093BC008091BC0087FF83
:10012000FCCF8091B900887F883151F08091B9006F
:10013000887F803429F08091B900887F90E008950D
:1001400090E080E008952FB7F894909156018923AC
:10015000909156019827909356012FBF08952FB77D
:10016000F894909155018923909155019827909387
:1001700055012FBF08952FB7F8949091540189230A
:10018000909154019827909354012FBF089508959A
:1001900008950F93FC01718360834283348323832A
:1001A000058316820F910895DC01E6B196B116968B
:1001B0008C9116978F70EE0FE4709170E92B24E00C
:1001C000829FC00111248A5F9E4FE80FF92FF11D15
:1001D000808116968C93807308959C0187B180630B
:1001E00087B988B1662379F0806388B987B18F7C3D
:1001F00087B92130310549F02230310551F088E4CA
:10020000232B21F008958F7CF0CF88E18093B800F4
:10021000F9CF8CE0FBCFFF920F931F93CF93DF9327
:10022000F82E8B01C42FD22F0E946F00FC01892B66
:1002300019F58F2D880F0E948800FC01892BE1F4AD
:10024000D801A8014C0F511D94E84A175B07D9F05B
:100250008D918093BB009093BC008091BC0087FF80
:10026000FCCF8091B900887F883279F38091B90002
:10027000887F59F3E82FF0E0CF01DF91CF911F91F4
:100280000F91FF900895D111F7CF84E98093BC00BE
:10029000F3CF0F931F93CF93DF93082FEB01142F0E
:1002A0000E946F009C01892BE9F5802F880F8160E7
:1002B0000E9488009C01892BA9F5FE0170E060E096
:1002C000812F8150990BAC0194EC64177507ACF445
:1002D0009093BC008091BC0087FFFCCF8091B90057
:1002E000887F803539F08091B900887F81936F5F76
:1002F0007F4FEBCF8091BB00F9CFC40FD51F84E8AF
:100300008093BC008091BC0087FFFCCF8091B90036
:10031000887F883569F08091B900887F888384E977
:100320008093BC00C901DF91CF911F910F91089577
:100330008091BB00F3CF0F920FB60F921F92112442
:100340002F933F934F935F936F937F938F939F93DD
:10035000AF93BF93EF93FF9381E0809350018CEDB7
:100360009FEF90938500809384005B9A5A984AE0AF
:100370004A95F1F700C05A9A30E020E08FE090E013
:10038000E9E0F0E05B9A4AE14A95F1F700C05B983A
:1003900049B144FB662760F970E0AB01082E02C04A
:1003A000440F551F0A94E2F7242B352B50E040E010
:1003B000DF01A81BB90B4A175B0724F400004F5F4D
:1003C0005F4FF9CF0197F0F6E0914E0181E08E0F7B
:1003D00080934E01F0E0EE0FFF1FE25EFE4F31838F
:1003E0002083883110F010924E01FF91EF91BF9160
:1003F000AF919F918F917F916F915F914F913F91BD
:100400002F911F900F900FBE0F901895CF93DF93F1
:100410000F92CDB7DEB78091010194E0899FF00182
:100420001124EF70E093010183B18983898140E059
:1004300080FD02C042E050E08981869591E08927E5
:10044000282F2170242BE22BE09301010E2E000CAB
:10045000FF0BE858FF4FE49180915801E80FE4301A
:1004600064F01092580180910201882351F080912C
:10047000020181508093020104C0ED3F34F0E0930B
:1004800058010F90DF91CF910895109258018091FB
:1004900002018F37B1F3809102018F5FEBCFCF93D1
:1004A000DF930F92CDB7DEB78091000194E0899F72
:1004B000F0011124EF70E093000186B189838981F6
:1004C00040E081FD02C042E050E089818095282F04
:1004D0002170242BE22BE09300010E2E000CFF0B69
:1004E000E859FF4FE49180915701E80FE43064F040
:1004F0001092570180910201882351F080910201EE
:1005000081508093020104C0ED3F34F0E093570125
:100510000F90DF91CF9108951092570180910201C1
:100520008F37B1F3809102018F5FEBCF1F920F9253
:100530000FB60F9211242F933F934F935F936F93B6
:100540007F938F939F93AF93BF93EF93FF930E94FB
:100550000602FF91EF91BF91AF919F918F917F9193
:100560006F915F914F913F912F910F900FBE0F9020
:100570001F9018951F920F920FB60F9211242F9370
:100580003F934F935F936F937F938F939F93AF931B
:10059000BF93EF93FF930E944F02FF91EF91BF91A2
:1005A000AF919F918F917F916F915F914F913F910B
:1005B0002F910F900FBE0F901F9018958CED9FEF0D
:1005C00090938500809384001092800085E0809352
:1005D000810081E080936F000895E8E6F0E080817B
:1005E00083608083ECE6F0E0808183608083EBE6CB
:1005F000F0E080818360808308950E94DE020C9485
:10060000ED0285B18F6185B988B1806388B93B9A65
:100610003A9A519A529A539A259824982398229854
:100620002198209839983898579856985598549802
:100630000895CF93DF93CDB7DEB7E1970FB6F89467
:10064000DEBF0FBECDBF0E94FD0261E081E090E001
:100650000E94ED000E9401031092C100CE0101969C
:100660000E94450381E3FE013196AEE1B1E00190C5
:100670000D928A95E1F77894E1960FB6F894DEBF73
:100680000FBECDBFDF91CF9108955A9A5B98089520
:10069000FC01A081B1812D913C9187819085282317
:1006A000392381E02115310509F480E0232BA1F0E5
:1006B000662391F0968121E092279683A381B481ED
:1006C00021853285992349F04D915C911197242B16
:1006D000352B11963C932E9308954D915C91119773
:1006E0002095309524233523F4CFCF92DF92EF92DB
:1006F000FF920F931F93CF93DF938C01EC016C015A
:10070000F12CE12CF80184A595A5E816F906C4F5AD
:1007100060E0C6010E944803FBE0CF0ED11C8111AE
:1007200004C08FEFE81AF80AEDCF95E0E916F1045E
:100730003CF550E040E091E0F80124A535A54217D2
:100740005307FCF4E416F50679F49E83EB81FC81F3
:100750002081318169857A85262B372B318320834F
:100760004F5F5F4F2B96E8CF1E82EB81FC8160814B
:10077000718129853A852095309526233723EECF40
:1007800080E0DF91CF911F910F91FF90EF90DF906C
:10079000CF900895CDB7DEB7C058D1090FB6F89401
:1007A000DEBF0FBECDBF0E94190322E531E038AB9A
:1007B0002FA74EE049AB84E091E09BAB8AAB4CABFA
:1007C0001DAA40E050E45FAB4EAB59AF48AF3BAF22
:1007D0002AAF4DE04CAF9EAF8DAF4FAF21961FAE0D
:1007E000219740E050E223965FAF4EAF23972596C6
:1007F0005FAF4EAF259727963FAF2EAF27974CE0C0
:1008000028964FAF28972A969FAF8EAF2A972B96A0
:100810004FAF2B972C961FAE2C9740E050E12E96B1
:100820005FAF4EAF2E9760965FAF4EAF6097629608
:100830003FAF2EAF62974BE063964FAF63976596DD
:100840009FAF8EAF659766964FAF669767961FAE60
:10085000679740E058E069965FAF4EAF69976B9637
:100860005FAF4EAF6B9744E050E06D965FAF4EAF19
:100870006D97EA961FAEEA97E5963FAF2EAFE597E4
:100880004AE0E6964FAFE697E8969FAF8EAFE897BF
:10089000E9964FAFE99740E054E0EC965FAF4EAF7A
:1008A000EC97EE965FAF4EAFEE97AF961FAEAF9759
:1008B000AA963FAF2EAFAA9741E0AB964FAFAB974A
:1008C000AD969FAF8EAFAD97AE964FAFAE9742E06D
:1008D00050E0E1965FAF4EAFE197E3965FAF4EAF6A
:1008E000E39718A63A83298346E04B839D838C8344
:1008F0004E831F8240E450E0598748875B874A87D0
:100900003D872C8745E04E87988B8F87498B1A8AC5
:1009100040E250E05C8B4B8B5E8B4D8B388F2F8B86
:1009200044E0498F9B8F8A8F4C8F1D8E40E150E0B1
:100930005F8F4E8F59A348A343E050E05EA74DA7B9
:10094000A4961FAEA4976F963FAF2EAF6F9723E08C
:10095000A0962FAFA097A2969FAF8EAFA297A39617
:100960002FAFA39788E090E0A6969FAF8EAFA69793
:10097000A8969FAF8EAFA897D12CC12C10E0F12C78
:10098000E12C2EE4A22E21E0B22E00915001002392
:10099000E1F310925001EEE1F1E08FEF9FEF219132
:1009A000319182239323AE16BF06C9F7909353016A
:1009B00080935201CE018F960E94750361E0CE01B3
:1009C0008D589F4F0E94480361E0CE0188599F4F88
:1009D0000E944803CE0101960E94750361E0CE019A
:1009E000835A9F4F0E944803C6018F709927892B15
:1009F00009F045C08091040190910501912CE81601
:100A0000F90629F0E0900401F0900501902E809104
:100A10000201811769F010910201AF968FADAF9777
:100A2000882341F080E1810F103728F08FE703C061
:100A3000092DF3CF812F002399F0EF968FAFEF9719
:100A40009E2D8F2DC158DF4F99838883CF57D0407B
:100A500020E043E0BE0162587F4F80E10E940B011D
:100A6000992069F0970180E120FD0DC04398429ADA
:100A70004298369527958150B9F7599A59988FEF32
:100A8000C81AD80A82CF439AF2CF8FE491E00C942F
:100A90004503EE0FFF1F0590F491E02D0994F894A3
:020AA000FFCF86
:100AA20003037F7F40400302010023000100130281
:0E0AB2000000030504000303041003050320E5
:00000001FF
