:100000000C9444000C9461000C9461000C942D023B
:100010000C9451020C9461000C9461000C946100EA
:100020000C9461000C9461000C9461000C946100CC
:100030000C9461000C948F010C9461000C9461008D
:100040000C9461000C9461000C9461000C946100AC
:100050000C9461000C9461000C9461000C9461009C
:100060000C9461000C94610000FF0100010000FF8E
:10007000FF0000010001FF0000FF0100010000FF80
:10008000FF0000010001FF0011241FBECFEFD8E0E8
:10009000DEBFCDBF11E0A0E0B1E0ECEEF9E002C0C0
:1000A00005900D92A432B107D9F721E0A4E2B1E0A6
:1000B00001C01D92AE32B207E1F70E9449030C94D1
:1000C000F4040C94000084EA8093BC008091BC008E
:1000D00087FFFCCF8091B900887F883051F08091F4
:1000E000B900887F803129F08091B900887F90E045
:1000F000089590E080E008958093BB0084E88093A9
:10010000BC008091BC0087FFFCCF8091B900887F44
:10011000883151F08091B900887F803429F0809136
:10012000B900887F90E0089590E080E008952FB7AF
:10013000F894909128018923909128019827909311
:1001400028012FBF08952FB7F89490912701892394
:10015000909127019827909327012FBF08952FB7DB
:10016000F8949091260189239091260198279093E5
:1001700026012FBF0895089508950F93FC01718300
:100180006083428334832383058316820F9108950D
:10019000DC01E6B196B116968C9116978F70EE0F32
:1001A000E4709170E92B24E0829FC0011124845FE8
:1001B0009E4FE80FF92FF11D808116968C93807366
:1001C00008959C0187B1806387B988B1662379F06F
:1001D000806388B987B18F7C87B92130310549F0B8
:1001E0002230310551F088E4232B21F008958F7CD3
:1001F000F0CF88E18093B800F9CF8CE0FBCFFF927D
:100200000F931F93CF93DF93F82E8B01C42FD22F20
:100210000E946300FC01892B19F58F2D880F0E9425
:100220007C00FC01892BE1F4D801A8014C0F511D81
:1002300094E84A175B07D9F08D918093BB009093A7
:10024000BC008091BC0087FFFCCF8091B900887F03
:10025000883279F38091B900887F59F3E82FF0E074
:10026000CF01DF91CF911F910F91FF900895D11190
:10027000F7CF84E98093BC00F3CF0F931F93CF9304
:10028000DF93082FEB01142F0E9463009C01892B40
:10029000E9F5802F880F81600E947C009C01892BEA
:1002A000A9F5FE0170E060E0812F8150990BAC014F
:1002B00094EC64177507ACF49093BC008091BC007B
:1002C00087FFFCCF8091B900887F803539F080911D
:1002D000B900887F81936F5F7F4FEBCF8091BB0028
:1002E000F9CFC40FD51F84E88093BC008091BC0077
:1002F00087FFFCCF8091B900887F883569F08091B5
:10030000B900887F888384E98093BC00C901DF91AC
:10031000CF911F910F9108958091BB00F3CF8F93E0
:100320009F9381E0809324018CED9FEF9093850053
:10033000809384009F918F911895CF93DF930F92B4
:10034000CDB7DEB78091010194E0899FF0011124BF
:10035000EF70E093010183B18983898140E080FDE2
:1003600002C042E050E08981869591E08927282FDC
:100370002170242BE22BE09301010E2E000CFF0BC9
:10038000E858FF4FE49180912A01E80FE43064F0CF
:1003900010922A0180910201882351F0809102017C
:1003A00081508093020104C0ED3F34F0E0932A01B4
:1003B0000F90DF91CF91089510922A018091020150
:1003C0008F37B1F3809102018F5FEBCFCF93DF9333
:1003D0000F92CDB7DEB78091000194E0899FF001C4
:1003E0001124EF70E093000186B18983898140E098
:1003F00081FD02C042E050E089818095282F217064
:10040000242BE22BE09300010E2E000CFF0BE85989
:10041000FF4FE49180912901E80FE43064F01092DD
:10042000290180910201882351F0809102018150BD
:100430008093020104C0ED3F34F0E09329010F9056
:10044000DF91CF91089510922901809102018F3799
:10045000B1F3809102018F5FEBCF1F920F920FB625
:100460000F9211242F933F934F935F936F937F933A
:100470008F939F93AF93BF93EF93FF930E949D0140
:10048000FF91EF91BF91AF919F918F917F916F916C
:100490005F914F913F912F910F900FBE0F901F9042
:1004A00018951F920F920FB60F9211242F933F931E
:1004B0004F935F936F937F938F939F93AF93BF936C
:1004C000EF93FF930E94E601FF91EF91BF91AF91EF
:1004D0009F918F917F916F915F914F913F912F915C
:1004E0000F900FBE0F901F9018958CED9FEF90937B
:1004F0008500809384001092800085E080938100C5
:1005000081E080936F000895E8E6F0E080818360E9
:100510008083ECE6F0E0808183608083EBE6F0E0AE
:1005200080818360808308950E9475020C94840208
:1005300085B18F6185B988B1806388B98BB18C6FC3
:100540008BB93B9A3A9A519A2598249823982298E5
:1005500021982098399838985798569855985498D3
:100560005398529808950E94940261E081E090E0CF
:100570000E94E1000E9498021092C10078940895B0
:100580001F93CF93DF93EC011E811130A1F4888576
:100590000E949700882379F0EB81FC818081918112
:1005A00029853A8582279327918380838F818127AC
:1005B0008F8381E009C08E81823051F488850E944A
:1005C000A30081110BC080E0DF91CF911F910895AE
:1005D0008430C9F788850E94AF00F3CFEB81FC819E
:1005E0008081918129853A85822793279183808311
:1005F0008F8191E08927DCCFCF92DF92EF92FF923B
:100600000F931F93CF93DF93EC017C016C0110E0FB
:1006100000E089A19AA1081719078CF5C6010E946C
:10062000C0029BE0C90ED11C811103C00F5F1F4F98
:10063000F0CF043011051CF550E040E029A13AA1AB
:1006400042175307ECF4D7011396ED91FC911497E0
:1006500019962D913C91608171810417150751F411
:10066000262B372B318320834F5F5F4FBBE0EB0E90
:10067000F11CE4CF2095309526233723F3CF80E07B
:10068000DF91CF911F910F91FF90EF90DF90CF906E
:100690000895CDB7DEB7CA56D1090FB6F894DEBFBC
:1006A0000FBECDBF0E94B30249E250E05DA34CA350
:1006B00062E06EA324E031E038A72FA38FE089A782
:1006C00084E08AA71BA68CA7E0E0F0E8FEA7EDA7D0
:1006D00058AB4FA773E079AB3BAB2AAB9EE09CAB2A
:1006E0008DAB1EAAF8E0FFABA0E0B0E4B9AFA8AFB5
:1006F0005BAF4AAF8CAF3EAF2DAF9DE09FAF219671
:100700008FAF219722961FAE2297E0E12396EFAF9D
:100710002397A0E0B0E22596BFAFAEAF2597A3E048
:10072000B0E02796BFAFAEAF27975A83498395E0D5
:100730009B833D832C8316E01E838F83188600E203
:10074000098700E4E02EF12CFB86EA865D874C8762
:100750001E87388B2F87998B8A8B1B8A90E49C8B02
:1007600000E210E01E8B0D8B588F4F8B97E0998F16
:100770003B8F2A8F8C8F8D8F1E8E90E89F8F40E14C
:1007800050E059A348A3BBA3AAA3A5961FAEA59763
:1007900043E250E06F965FAF4EAF6F97A0966FAF9A
:1007A000A097A2963FAF2EAFA297A3967FAFA39735
:1007B00091E0A4969FAFA497A6968FAFA697A8E0C6
:1007C000B0E0A896BFAFAEAFA8976A961FAE6A9783
:1007D00064965FAF4EAF649765967FAF65976796F7
:1007E0003FAF2EAF679768966FAF689769969FAFD8
:1007F00069976B96FFAF6B9764E070E06D967FAF83
:100800006EAF6D972F961FAE2F9729965FAF4EAFA5
:1008100029972A968FAF2A972C963FAF2EAF2C9709
:100820002D969FAF2D972E969FAF2E976096EFAF88
:10083000609782E090E062969FAF8EAF6297F12C56
:10084000E12CD12C10E000E0C0902401CC20E1F399
:100850001092240153B1A0912D015A27452F4095A4
:1008600036B1F0912C013F27732F709599B1E0912B
:100870002B019E27692F6095B0910B01842F8B234C
:10088000809580930B0120910A01422348274093D1
:100890000A01B0900901272F2B21822F8095809388
:1008A0000901209108012723282720930801A090FF
:1008B0000701862F8A21782F709570930701809108
:1008C000060186238727809306015B2B50954523DD
:1008D0003B29309523239A29909589235A2F542711
:1008E00050932D013F2F322730932C019E2F9827B4
:1008F00090932B01609128014523462B40932801BA
:10090000409127012323242B2093270120912601A6
:100910008923822B80932601CE0184960E94FC02BB
:10092000CE0101960E94FC02CE01835A9F4F0E9485
:10093000C002CE018E5A9F4F0E94C002CE01895B39
:100940009F4F0E94C002C7018F709927892B09F021
:100950003FC08091040190910501B12C081719073F
:1009600029F00091040110910501BC2C8091020135
:100970008D1591F1D09002012F968FAD2F9788237E
:1009800069F18FE68D1560F180E18D0DCC2089F045
:10099000A9968FAFA997902F812FAB969FAF8EAF5F
:1009A000AB9720E043E0BE0168597F4F80E10E9491
:1009B000FF00BB2069F0980180E120FD13C043983F
:1009C000429A4298369527958150B9F7599A599885
:1009D0008FEFE81AF80A38CFCB2CCECF8D2DD6CF9B
:0C09E0008FE7D4CF439AECCFF894FFCF00
:1009EC0003037F7F9080FFFFFFFFFFFF03020100E7
:1009FC00230001001302000003050400030304108C
:040A0C0003050320BB
:00000001FF
