:100000000C943C000C9459000C9459000C94590029
:100010000C94AC010C9459000C9459000C945900A8
:100020000C9459000C9459000C9459000C945900EC
:100030000C9459000C949E010C9459000C94590096
:100040000C9459000C9459000C9459000C945900CC
:100050000C9459000C9459000C9459000C945900BC
:100060000C9459000C94590000FF0100010000FF9E
:10007000FF0000010001FF0011241FBECFEFD8E0F8
:10008000DEBFCDBF11E0A0E0B1E0E4E5F7E002C0E3
:1000900005900D92A032B107D9F721E0A0E2B1E0BE
:1000A00001C01D92A133B207E1F70E94B7020C9480
:1000B000A8030C94000084EA8093BC008091BC00EB
:1000C00087FFFCCF8091B900887F883051F0809104
:1000D000B900887F803129F08091B900887F90E055
:1000E000089590E080E008958093BB0084E88093B9
:1000F000BC008091BC0087FFFCCF8091B900887F55
:10010000883151F08091B900887F803429F0809146
:10011000B900887F90E0089590E080E008952FB7BF
:10012000F89490912C01892390912C019827909319
:100130002C012FBF08952FB7F89490912B0189239C
:1001400090912B01982790932B012FBF08952FB7E3
:10015000F89490912A01892390912A0198279093ED
:100160002A012FBF089508959C0187B1806387B944
:1001700088B1662379F0806388B987B18F7C87B9AD
:100180002130310549F02230310551F088E4232B2C
:1001900021F008958F7CF0CF88E18093B800F9CFEB
:1001A0008CE0FBCFFF920F931F93CF93DF93F82E3A
:1001B0008B01C42FD22F0E945B00FC01892B19F503
:1001C0008F2D880F0E947400FC01892BE1F4D80167
:1001D000A8014C0F511D94E84A175B07D9F08D9187
:1001E0008093BB009093BC008091BC0087FFFCCF44
:1001F0008091B900887F883279F38091B900887F37
:1002000059F3E82FF0E0CF01DF91CF911F910F91CB
:10021000FF900895D111F7CF84E98093BC00F3CF0C
:100220000F931F93CF93DF93082FEB01142F0E949E
:100230005B009C01892BE9F5802F880F81600E946B
:1002400074009C01892BA9F5FE0170E060E0812F0C
:100250008150990BAC0194EC64177507ACF4909342
:10026000BC008091BC0087FFFCCF8091B900887FE3
:10027000803539F08091B900887F81936F5F7F4F1F
:10028000EBCF8091BB00F9CFC40FD51F84E88093DA
:10029000BC008091BC0087FFFCCF8091B900887FB3
:1002A000883569F08091B900887F888384E98093DC
:1002B000BC00C901DF91CF911F910F9108958091EA
:1002C000BB00F3CF08950F93FC01718360834283D9
:1002D00034832383058316820F910895DC01E6B1F0
:1002E00096B116968C9116978F70EE0FE470917000
:1002F000E92B24E0829FC0011124885F9E4FE80F04
:10030000F92FF11D808116968C9380730895FC015E
:10031000808121E030E001C0220F6A95EAF7822B4C
:1003200080830895FC01208181E090E001C0880F66
:100330006A95EAF780958223808308958F939F932F
:1003400081E0809327018CED9FEF9093850080934F
:1003500084009F918F9118950F920FB60F921F9264
:1003600011242F933F934F935F938F939F93EF931A
:10037000FF93CF93DF930F92CDB7DEB7809100014B
:1003800094E0899FF0011124EF70E093000186B1A1
:100390008983898140E081FD02C042E050E089818B
:1003A0008095282F2170242BE22BE09300010E2E44
:1003B000000CFF0BE859FF4FE49180912D01E80FED
:1003C000E4303CF110922D01809129018F5F8093E0
:1003D00029015D9A2FEF80E792E021508040904004
:1003E000E1F700C000005D982FEF80E792E0215018
:1003F00080409040E1F700C000005D9A2FEF80E759
:1004000092E0215080409040E1F700C000005D98EC
:1004100004C0ED3F94F0E0932D010F90DF91CF9158
:10042000FF91EF919F918F915F914F913F912F910C
:100430001F900F900FBE0F90189510922D01809174
:100440000101813019F410922901D7CF809129013F
:10045000815080932901D1CF8CED9FEF909385003F
:10046000809384001092800085E08093810081E079
:1004700080936F000895E8E6F0E0808182608083D9
:10048000ECE6F0E080818360808308950E942C0276
:100490000E943B0278940895CF92DF92EF92FF92F0
:1004A0000F931F93CF93DF93EC016C017C0110E05D
:1004B00000E08B8D9C8D081719070CF04CC0D701FC
:1004C00016968C911697813071F517968C910E9433
:1004D0008F00882341F189E0809FF001819FF00D1A
:1004E0001124EC0FFD1FA381B4818C919085892785
:1004F0008C9330E020E08B8D9C8D28173907ACF56C
:10050000D6011396ED91FC91149718968C919081D9
:1005100002171307E9F4892B80832F5F3F4FB9E05F
:10052000CB0ED11CE8CFF7018681823059F4878148
:100530000E949B008111CFCF0F5F1F4FB9E0EB0EE0
:10054000F11CB7CF8430C1F787810E94A700F2CF9A
:1005500080958923E1CF80E0DF91CF911F910F91AA
:10056000FF90EF90DF90CF90089581E0F5CFCDB769
:10057000DEB7EB970FB6F894DEBF0FBECDBF289A5B
:100580008BB188658BB9559A2098389839985698C8
:1005900080E5809301010E94460260E081E090E0E6
:1005A0000E94B40083E290E09F8F8E8F18A221E01A
:1005B00031E03AA329A386E08BA391E09CA39DA3FD
:1005C00060E46EA349E250E058A74FA389A73BA778
:1005D0002AA785E08CA784E08DA76EA760E26FA7AD
:1005E00062E070E07AAF69AF5A8349838B833D83C1
:1005F0002C838E838F83E0E1E887E9875B874A87D6
:1006000043E04C873E872D874F87888B88E0898B16
:100610008A8B7D8F6C8F26E230E03093210120930E
:100620002001109222013093240120932301909302
:1006300025011092260110E000E0F12C80912701A5
:100640008823E1F31092270153B1B09130015B2769
:10065000E52FE09536B1A0912F013A27732F7095C1
:1006600099B1F0912E019F27692F6095D0900701D5
:100670004E2F4D21842F80958093070140910601D4
:100680004E23482740930601E0900501272F2E2195
:10069000822F80958093050120910401272328272C
:1006A00020930401E0910301862F8E23782F70950B
:1006B00070930301809102018623872780930201B2
:1006C0005D29509545233E29309523239E2B9095F7
:1006D00089235B2F5427509330013A2F32273093D0
:1006E0002F019F2F982790932E0160912C01452375
:1006F000462B40932C0140912B012323242B209344
:100700002B0120912A018923822B80932A01CE017B
:100710004E960E944C02CE0101960E944C02C801E6
:1007200087709927892B89F480910101F81669F067
:10073000F0900101809101018BAF20E041E0BE010A
:10074000655C7F4F80E10E94D2000F5F1F4F76CF24
:04075000F894FFCF4B
:100754000328FFFFFFFFFFFF030201002300010046
:10076400130200000305040003030410030503201F
:00000001FF
