:100000000C943C000C9459000C9459000C94590029
:100010000C9495010C9459000C9459000C945900BF
:100020000C9459000C9459000C9459000C945900EC
:100030000C9459000C9487010C9459000C945900AD
:100040000C9459000C9459000C9459000C945900CC
:100050000C9459000C9459000C9459000C945900BC
:100060000C9459000C94590000FF0100010000FF9E
:10007000FF0000010001FF0011241FBECFEFD8E0F8
:10008000DEBFCDBF11E0A0E0B1E0E2EAF4E002C0E3
:1000900005900D92AA31B107D9F721E0AAE1B1E0AC
:1000A00001C01D92A232B207E1F70E9414020C9423
:1000B0004F020C94000084EA8093BC008091BC0045
:1000C00087FFFCCF8091B900887F883051F0809104
:1000D000B900887F803129F08091B900887F90E055
:1000E000089590E080E008958093BB0084E88093B9
:1000F000BC008091BC0087FFFCCF8091B900887F55
:10010000883151F08091B900887F803429F0809146
:10011000B900887F90E0089590E080E008952FB7BF
:10012000F894909120018923909120019827909331
:1001300020012FBF08952FB7F89490911F018923B4
:1001400090911F01982790931F012FBF08952FB7FB
:10015000F89490911E01892390911E019827909305
:100160001E012FBF089508959C0187B1806387B950
:1001700088B1662379F0806388B987B18F7C87B9AD
:100180002130310549F02230310551F088E4232B2C
:1001900021F008958F7CF0CF88E18093B800F9CFEB
:1001A0008CE0FBCFFF920F931F93CF93DF93F82E3A
:1001B0008B01C42FD22F0E945B00FC01892B19F503
:1001C0008F2D880F0E947400FC01892BE1F4D80167
:1001D000A8014C0F511D94E84A175B07D9F08D9187
:1001E0008093BB009093BC008091BC0087FFFCCF44
:1001F0008091B900887F883279F38091B900887F37
:1002000059F3E82FF0E0CF01DF91CF911F910F91CB
:10021000FF900895D111F7CF84E98093BC00F3CF0C
:100220000F931F93CF93DF93082FEB01142F0E949E
:100230005B009C01892BE9F5802F880F81600E946B
:1002400074009C01892BA9F5FE0170E060E0812F0C
:100250008150990BAC0194EC64177507ACF4909342
:10026000BC008091BC0087FFFCCF8091B900887FE3
:10027000803539F08091B900887F81936F5F7F4F1F
:10028000EBCF8091BB00F9CFC40FD51F84E88093DA
:10029000BC008091BC0087FFFCCF8091B900887FB3
:1002A000883569F08091B900887F888384E98093DC
:1002B000BC00C901DF91CF911F910F9108958091EA
:1002C000BB00F3CF08950F93FC01718360834283D9
:1002D00034832383058316820F910895DC01E6B1F0
:1002E00096B116968C9116978F70EE0FE470917000
:1002F000E92B24E0829FC00111248F5F9E4FE80FFD
:10030000F92FF11D808116968C93807308958F9339
:100310009F9381E080931A018CED9FEF909385006D
:10032000809384009F918F9118950F920FB60F9232
:100330001F9211242F933F934F935F938F939F931B
:10034000EF93FF93CF93DF930F92CDB7DEB78091FA
:10035000000194E0899FF0011124EF70E093000107
:1003600086B18983898140E081FD02C042E050E08E
:1003700089818095282F2170242BE22BE0930001A6
:100380000E2E000CFF0BE859FF4FE49180912101E4
:10039000E80FE43044F01092210180911D018F5F3D
:1003A00080931D0104C0ED3F94F0E09321010F9074
:1003B000DF91CF91FF91EF919F918F915F914F913D
:1003C0003F912F911F900F900FBE0F901895109294
:1003D000210180911D01813019F410921D01E7CF98
:1003E00080911D018150DCCF8CED9FEF90938500B3
:1003F000809384001092800085E08093810081E0EA
:1004000080936F000895E8E6F0E080818260808349
:10041000ECE6F0E080818360808308950E94F4011F
:100420000E9403027894089500D0CDB7DEB7289AD1
:100430008BB188658BB9559A209838983998569819
:1004400010921D010E940E0260E081E090E00E9487
:10045000B40010E000E0F12C80911A018823E1F350
:1004600010921A01C80187709927892BA9F48091ED
:100470001D01F81689F0F0901D0180911D018983FE
:1004800080911D0180958A8320E042E0BE016F5F6C
:100490007F4F80E10E94D2000F5F1F4FDDCFF894A5
:0204A000FFCF8C
:1004A20003030201002300010013020000030504FC
:0A04B20000030304100305032000FB
:00000001FF
