:100000000C9435000C945D000C945D000C940B0274
:100010000C9431020C945D000C945D000C945D0016
:100020000C945D000C945D000C945D000C945D00DC
:100030000C945D000C945D000C945D000C945D00CC
:100040000C9441010C945D000C945D000C945D00D7
:100050000C945D000C945D000C945D000C945D00AC
:100060000C945D000C945D00C60511241FBECFEFFB
:10007000D8E0DEBFCDBF11E0A0E0B1E0ECEAFBE0EC
:1000800002C005900D92A431B107D9F721E0A4E197
:10009000B1E001C01D92A738B207E1F710E0C5E357
:1000A000D0E004C02197FE010E94CE05C433D107E1
:1000B000C9F70E94D7030C94D4050C94000084EA7D
:1000C0008093BC008091BC0087FFFCCF8091B90079
:1000D000887F883051F08091B900887F803129F085
:1000E0008091B900887F90E0089590E080E00895C5
:1000F0008093BB0084E88093BC008091BC0087FFA4
:10010000FCCF8091B900887F883151F08091B9008F
:10011000887F803429F08091B900887F90E008952D
:1001200090E080E008959C0187B1806387B988B131
:10013000662379F0806388B987B18F7C87B92130D5
:10014000310549F02230310551F088E4232B21F0AC
:1001500008958F7CF0CF88E18093B800F9CF8CE0D0
:10016000FBCFFF920F931F93CF93DF93F82E8B015A
:10017000C42FD22F0E945F00FC01892B19F58F2D0F
:10018000880F0E947800FC01892BE1F4D801A801B6
:100190004C0F511D94E84A175B07D9F08D9180935D
:1001A000BB009093BC008091BC0087FFFCCF809186
:1001B000B900887F883279F38091B900887F59F33C
:1001C000E82FF0E0CF01DF91CF911F910F91FF90C9
:1001D0000895D111F7CF84E98093BC00F3CF0F933A
:1001E0001F93CF93DF93082FEB01142F0E945F0022
:1001F0009C01892BE9F5802F880F81600E9478008F
:100200009C01892BA9F5FE0170E060E0812F8150EF
:10021000990BAC0194EC64177507ACF49093BC0097
:100220008091BC0087FFFCCF8091B900887F80352A
:1002300039F08091B900887F81936F5F7F4FEBCF5A
:100240008091BB00F9CFC40FD51F84E88093BC0018
:100250008091BC0087FFFCCF8091B900887F8835F2
:1002600069F08091B900887F888384E98093BC001D
:10027000C901DF91CF911F910F9108958091BB002B
:10028000F3CF0F920FB60F921F9211242F933F932B
:100290004F935F936F937F938F939F93AF93BF938E
:1002A000CF93DF93EF93FF93E0917901F0917A017F
:1002B000208130917D0181E090E0AC0101C0440FCC
:1002C0003A95EAF7242B2083E0917901F0917A01A5
:1002D000408120917C01BC0102C0660F771F2A95E6
:1002E000E2F79B01209524232083E0917901F0918E
:1002F0007A01208130917C0101C0880F3A95EAF79C
:10030000822B808330E020E04FE050E061E070E03D
:10031000E0917901F0917A01808190917D01DB017A
:1003200001C0AA0F9A95EAF78A2B8083E0917901A0
:10033000F0917A01A08180917D01EB0102C0CC0F88
:10034000DD1F8A95E2F7CE0180958A238083E091B4
:100350007701F0917801E08180917B01DB0102C09F
:10036000AA0FBB1F8A95E2F7EA2381E090E011F41F
:1003700090E080E0042E02C0880F991F0A94E2F7F3
:10038000282B392B4150510918F660918501709145
:100390008601A90146275727809183019091840106
:1003A000209181013091820128273927FA01E095B7
:1003B000F0952E233F233093820120938101842BDB
:1003C000952B80959095909384018093830182234F
:1003D00093238627972790938601809385018095A4
:1003E00090959093800180937F0181E080937E01BE
:1003F000FF91EF91DF91CF91BF91AF919F918F913D
:100400007F916F915F914F913F912F911F900F902E
:100410000FBE0F9018951F920F920FB60F921124D6
:100420002F933F934F935F936F937F938F939F93FC
:10043000AF93BF93EF93FF938EE291E00E9400038E
:10044000FF91EF91BF91AF919F918F917F916F91AC
:100450005F914F913F912F910F900FBE0F901F9082
:1004600018951F920F920FB60F9211242F933F935E
:100470004F935F936F937F938F939F93AF93BF93AC
:10048000EF93FF9386E191E00E940003FF91EF91CB
:10049000BF91AF919F918F917F916F915F914F919C
:1004A0003F912F910F900FBE0F901F90189514BC85
:1004B00083E085BD81E080936E000895E8E6F0E07A
:1004C000808183608083ECE6F0E0808183608083BC
:1004D000EBE6F0E0808183608083089588B18063DB
:1004E00088B9249A239A229A529A539A2598219845
:1004F0002098399838985798569855985498089550
:10050000CF93DF93CDB7DEB7E1970FB6F894DEBF98
:100510000FBECDBF0E9457020E945E0261E081E0E3
:1005200090E00E9493000E946E021092C10080E150
:10053000E4E0F1E0DE01119601900D928A95E1F779
:1005400083E0898B1A8A23E230E03C8B2B8B91E08D
:100550009D8B1E8A20E031E0388F2F8B48E1FE0111
:100560003196AEE2B1E001900D924A95E1F740E19B
:10057000E4E0F1E0DE01119601900D924A95E1F779
:10058000898B1A8A46E250E05C8B4B8B9D8B1E8ACE
:10059000388F2F8B98E1FE013196A6E1B1E00190F2
:1005A0000D929A95E1F75A9A5B98E7E7F1E029E214
:1005B00030E0318320832BE230E03383228394E0E8
:1005C000948392E09583868381E3FE013196A6E4CD
:1005D000B1E001900D928A95E1F77894E1960FB61B
:1005E000F894DEBF0FBECDBFDF91CF910895DC013F
:1005F00080E1E4E0F1E001900D928A95E1F7089541
:10060000CF93DF930F92CDB7DEB7FC01808994E0E2
:10061000899F900111242F70208BA289B3898C911E
:100620008983898190E0358902C0959587953A95AF
:10063000E2F740E080FD02C042E050E09981892F5E
:1006400090E0348902C0959587953A95E2F78095B8
:10065000909581709927842B822B808BDF01A80FC6
:10066000B11D87FDBA9581899C91890F84305CF01A
:10067000118A0688F789E02D8081882339F08081EE
:100680008150808303C08D3F2CF0818B0F90DF91D0
:10069000CF910895118A0688F789E02D80818F37E0
:1006A000A9F380818F5FEDCFFC016683A381B481C4
:1006B000828593852D913C911197662331F0822B91
:1006C000932B11969C938E930895809590958223F9
:1006D0009323F7CFCF93FC01A081B1818D919C91A1
:1006E0002085318582239323C1E0009709F4C0E07F
:1006F0002781222311F0009759F4C783892B41F0F9
:10070000662331F0668181E06827CF010E9454039F
:100710008C2FCF910895AF92BF92CF92DF92FF922C
:100720000F931F93CF93DF938C01EC015C01D12CCD
:10073000C12CF80180A991A9C816D90664F560E01A
:10074000C5010E946A03F82EFCE0AF0EB11C8111B6
:1007500004C08FEFC81AD80AECCFE5E0CE16D1045A
:10076000D4F4B12CA12CF80180A991A9A816B9063E
:100770009CF460E0CA14DB0431F461E0019719F4E1
:100780006E8181E06827CE010E945403FFEFAF1A0B
:10079000BF0A2C96E8CFF12C8F2DDF91CF911F91BE
:1007A0000F91FF90DF90CF90BF90AF900895CDB79D
:1007B000DEB7C759D1090FB6F894DEBF0FBECDBF63
:1007C000FE01F396CF01C0960E2FFF2E16821782E0
:1007D0003C968E179F07D1F72FE731E03CAB2BAB50
:1007E0004EE04DAB82E091E09FAB8EAB48AF19AECF
:1007F0001AAE40E050E45CAF4BAF5EAF4DAF219618
:100800003FAF2EAF21974DE022964FAF229724960F
:100810009FAF8EAF249725964FAF259726961FAE94
:10082000269727961FAE279740E050E229965FAFA4
:100830004EAF29972B965FAF4EAF2B972D963FAFBC
:100840002EAF2D974CE02E964FAF2E9760969FAF10
:100850008EAF609761964FAF619762961FAE6297B9
:1008600063961FAE639740E050E165965FAF4EAF71
:10087000659767965FAF4EAF679769963FAF2EAFAC
:1008800069974BE06A964FAF6A976C969FAF8EAFB1
:100890006C976D964FAF6D976E961FAE6E976F9675
:1008A0001FAE6F9740E058E0A1965FAF4EAFA197A3
:1008B000A3965FAF4EAFA39744E050E0A5965FAF1D
:1008C0004EAFA597C157DF4F1882CF58D040C057C1
:1008D000DF4F1882C059D040C757DF4F3983288374
:1008E000C958D0404AE0C557DF4F4883CB58D04065
:1008F000C457DF4F99838883CC58D040C257DF4F0D
:100900004883CE58D04040E054E0CF56DF4F598363
:100910004883C159D040CD56DF4F59834883C359CE
:10092000D040CD57DF4F1882C358D040CC57DF4F4F
:100930001882C458D040EF963FAF2EAFEF9721E01A
:10094000C158DF4F2883CF57D040C058DF4F99831D
:100950008883C058D040CE57DF4F2883C258D0403C
:1009600082E090E0CB57DF4F99838883C558D04011
:10097000C957DF4F99838883C758D040FE0131960D
:10098000CE01C196EE2E9F2E168217823C96E81756
:10099000F907D1F72FE731E03A83298346E04B830B
:1009A00082E091E09D838C834E831F82188640E411
:1009B00050E05A8749875C874B873E872D8745E003
:1009C0004F87998B888B4A8B1B8A1C8A40E250E0A8
:1009D0005E8B4D8B588F4F8B3A8F298F44E04B8F16
:1009E0009D8F8C8F4E8F1F8E18A240E150E05AA32E
:1009F00049A35CA34BA343E050E05AAB49ABE89654
:100A00001FAEE897E9961FAEE997E3963FAF2EAF8A
:100A1000E397E4964FAFE497E6969FAF8EAFE697E5
:100A2000E7964FAFE79748E050E0EB965FAF4EAFE9
:100A3000EB97ED965FAF4EAFED97AC961FAEAC97D0
:100A4000AD961FAEAD97A7963FAF2EAFA79722E00A
:100A5000A8962FAFA897AA969FAF8EAFAA97AB96EE
:100A60002FAFAB9784E090E0AF969FAF8EAFAF977C
:100A7000E1969FAF8EAFE1970E948002B12CA12C2E
:100A800010E0D12CC12C80917E01882339F084E0C4
:100A9000A816B10434F59FEFA91AB90A8091020192
:100AA00090910301812C8C159D0531F0C0900201BD
:100AB000D09003018824839480910001982D8117A0
:100AC00019F01091000191E0CD57DF4F8881C35894
:100AD000D040882339F180E1810F103720F18FE772
:100AE00022C0802F9F2D0E948B0361E0CE0187578B
:100AF0009F4F0E946A0361E0CE0183589F4F0E947E
:100B00006A038E2D992D0E948B0361E0CE018F58D0
:100B10009F4F0E946A0361E0CE018B599F4F0E9454
:100B20006A03BCCF812F911108C090917E01992357
:100B3000C9F094E0A916B104ACF4CB56DF4F88831A
:100B4000C559D0409C2D8D2DCA56DF4F998388837F
:100B5000C659D04020E043E0BE016B567F4F80E194
:100B60000E94B100882069F0960180E120FD0CC050
:100B70002C982A9A2A98369527958150B9F72B9A5E
:100B80002B9810927E017FCF2C9AF3CF8EE291E0CA
:100B90000E94F70286E191E00C94F702EE0FFF1F2E
:0C0BA0000590F491E02D0994F894FFCF2B
:100BAC007F7F404000FF0100010000FFFF000001BB
:040BBC000001FF0035
:00000001FF
