:100000000C9445000C946D000C946D000C948802C7
:100010000C94AC020C946D000C946D000C946D006B
:100020000C946D000C946D000C946D000C946D009C
:100030000C946D000C946D000C946D000C946D008C
:100040000C9477010C946D000C946D000C946D0071
:100050000C946D000C946D000C946D000C946D006C
:100060000C946D000C946D0000FF0100010000FF76
:10007000FF0000010001FF0000FF0100010000FF80
:10008000FF0000010001FF00690511241FBECFEF32
:10009000D8E0DEBFCDBF11E0A0E0B1E0EAEEFAE0CB
:1000A00002C005900D92AE31B107D9F721E0AEE163
:1000B000B1E001C01D92AB35B207E1F710E0C5E435
:1000C000D0E004C02197FE010E946D05C434D10721
:1000D000C9F70E94B4030C9473050C94000084EAE1
:1000E0008093BC008091BC0087FFFCCF8091B90059
:1000F000887F883051F08091B900887F803129F065
:100100008091B900887F90E0089590E080E00895A4
:100110008093BB0084E88093BC008091BC0087FF83
:10012000FCCF8091B900887F883151F08091B9006F
:10013000887F803429F08091B900887F90E008950D
:1001400090E080E00895089508950F93FC01718375
:100150006083428334832383058316820F9108953D
:10016000DC01E6B196B116968C9116978F70EE0F62
:10017000E4709170E92B24E0829FC00111248A5F12
:100180009E4FE80FF92FF11D808116968C93807396
:1001900008959C0187B1806387B988B1662379F09F
:1001A000806388B987B18F7C87B92130310549F0E8
:1001B0002230310551F088E4232B21F008958F7C03
:1001C000F0CF88E18093B800F9CF8CE0FBCFFF92AD
:1001D0000F931F93CF93DF93F82E8B01C42FD22F51
:1001E0000E946F00FC01892B19F58F2D880F0E944A
:1001F0008800FC01892BE1F4D801A8014C0F511DA6
:1002000094E8A417B507D9F08D918093BB00909323
:10021000BC008091BC0087FFFCCF8091B900887F33
:10022000883279F38091B900887F59F3E82FF0E0A4
:10023000CF01DF91CF911F910F91FF900895D111C0
:10024000F7CF84E98093BC00F3CF0F931F93CF9334
:10025000DF93082FEB01142F0E946F009C01892B64
:10026000E9F5802F880F81600E9488009C01892B0E
:10027000A9F5FE0170E060E0812F8150990BAC017F
:1002800094EC64177507ACF49093BC008091BC00AB
:1002900087FFFCCF8091B900887F803539F080914D
:1002A000B900887F81936F5F7F4FEBCF8091BB0058
:1002B000F9CFC40FD51F84E88093BC008091BC00A7
:1002C00087FFFCCF8091B900887F883569F08091E5
:1002D000B900887F888384E98093BC00C901DF91DD
:1002E000CF911F910F9108958091BB00F3CF0F9292
:1002F0000FB60F922F933F934F935F936F937F931C
:100300008F939F93AF93BF93EF93FF9381E080937D
:1003100050015B9A5A984AE04A95F1F700C05A9A00
:1003200030E020E08FE090E0E9E0F0E05B9A4AE125
:100330004A95F1F700C05B9849B144FB662760F924
:1003400070E0AB01082E02C0440F551F0A94E2F77B
:10035000242B352B50E040E0DF01A81BB90B4A17D6
:100360005B0724F400004F5F5F4FF9CF0197F0F671
:100370006091590170915A01A90146275727809130
:10038000570190915801209155013091560128272D
:100390003927FA01E095F0952E233F23309356013B
:1003A00020935501842B952B80959095909358011F
:1003B00080935701822393238627972790935A018E
:1003C00080935901809590959093520180935101AB
:1003D000FF91EF91BF91AF919F918F917F916F911D
:1003E0005F914F913F912F910F900FBE0F901895F5
:1003F000CF93DF930F92CDB7DEB78091010194E0E8
:10040000899FF0011124EF70E093010183B189838A
:10041000898140E080FD02C042E050E089818695FC
:1004200091E08927282F2170242BE22BE0930101F2
:100430000E2E000CFF0BE858FF4FE4918091540101
:10044000E80FE43064F01092540180910201882397
:1004500051F08091020181508093020104C0ED3F70
:1004600034F0E09354010F90DF91CF9108951092F2
:100470005401809102018F37B1F3809102018F5FA7
:10048000EBCFCF93DF930F92CDB7DEB78091000112
:1004900094E0899FF0011124EF70E093000186B190
:1004A0008983898140E081FD02C042E050E089817A
:1004B0008095282F2170242BE22BE09300010E2E33
:1004C000000CFF0BE859FF4FE49180915301E80FB6
:1004D000E43064F01092530180910201882351F0BE
:1004E0008091020181508093020104C0ED3F34F0FD
:1004F000E09353010F90DF91CF9108951092530133
:10050000809102018F37B1F3809102018F5FEBCFB1
:100510001F920F920FB60F9211242F933F934F9378
:100520005F936F937F938F939F93AF93BF93EF935B
:10053000FF930E94F801FF91EF91BF91AF919F91BE
:100540008F917F916F915F914F913F912F910F907C
:100550000FBE0F901F9018951F920F920FB60F921B
:1005600011242F933F934F935F936F937F938F93B8
:100570009F93AF93BF93EF93FF930E944102FF912C
:10058000EF91BF91AF919F918F917F916F915F910B
:100590004F913F912F910F900FBE0F901F90189584
:1005A00014BC83E085BD81E080936E000895E8E689
:1005B000F0E0808183608083ECE6F0E080818360FE
:1005C0008083EBE6F0E080818360808308950E9461
:1005D000D0020C94D70285B18F6185B988B1806350
:1005E00088B93B9A3A9A399A529A539A25982498FC
:1005F000239822982198209838985798569855987B
:1006000054980895CF93DF93CDB7DEB7E1970FB637
:10061000F894DEBF0FBECDBF0E94E70261E081E02B
:1006200090E00E94C9000E94EB021092C100CE012E
:1006300001960E942E0381E3FE013196AEE1B1E006
:1006400001900D928A95E1F77894E1960FB6F894AF
:10065000DEBF0FBECDBFDF91CF9108955A9A5B9850
:100660000895FC016683A381B481828593852D91D1
:100670003C911197662331F0822B932B11969C931A
:100680008E9308958095909582239323F7CFCF93EF
:10069000FC01A081B1818D919C91208531858223BF
:1006A0009323C1E0009709F4C0E02781222311F0D1
:1006B000009759F4C783892B41F0662331F0668196
:1006C00081E06827CF010E9431038C2FCF910895DC
:1006D000AF92BF92CF92DF92FF920F931F93CF936F
:1006E000DF938C01EC015C01D12CC12CF80180A9B5
:1006F00091A9C816D90664F560E0C5010E944703B8
:10070000F82EFCE0AF0EB11C811104C08FEFC81AA7
:10071000D80AECCFE5E0CE16D104D4F4B12CA12C4C
:10072000F80180A991A9A816B9069CF460E0CA1442
:10073000DB0431F461E0019719F46E8181E06827F0
:10074000CE010E943103FFEFAF1ABF0A2C96E8CF0B
:10075000F12C8F2DDF91CF911F910F91FF90DF90A2
:10076000CF90BF90AF900895CDB7DEB7C459D109EF
:100770000FB6F894DEBF0FBECDBF0E940203FE018C
:10078000F396CF01C096FE2EEF2E168217823C966E
:100790008E179F07D1F721E531E03CAB2BAB4EE044
:1007A0004DAB84E091E09FAB8EAB48AF19AE1AAE73
:1007B00040E050E45CAF4BAF5EAF4DAF21963FAF32
:1007C0002EAF21974DE022964FAF229724969FAFF0
:1007D0008EAF249725964FAF259726961FAE269766
:1007E00027961FAE279740E050E229965FAF4EAFA5
:1007F00029972B965FAF4EAF2B972D963FAF2EAF1D
:100800002D974CE02E964FAF2E9760969FAF8EAFF0
:10081000609761964FAF619762961FAE629763963D
:100820001FAE639740E050E165965FAF4EAF6597AE
:1008300067965FAF4EAF679769963FAF2EAF6997E8
:100840004BE06A964FAF6A976C969FAF8EAF6C97EE
:100850006D964FAF6D976E961FAE6E976F961FAEEB
:100860006F9740E058E0A1965FAF4EAFA197A39677
:100870005FAF4EAFA39744E050E0A5965FAF4EAF99
:10088000A597C157DF4F1882CF58D040C057DF4FD0
:100890001882C059D040C757DF4F39832883C958C1
:1008A000D0404AE0C557DF4F4883CB58D040C457AB
:1008B000DF4F99838883CC58D040C257DF4F48839D
:1008C000CE58D04040E054E0CF56DF4F59834883A4
:1008D000C159D040CD56DF4F59834883C359D040CA
:1008E000CD57DF4F1882C358D040CC57DF4F188206
:1008F000C458D040EF963FAF2EAFEF9721E0C158DC
:10090000DF4F2883CF57D040C058DF4F998388836B
:10091000C058D040CE57DF4F2883C258D04082E025
:1009200090E0CB57DF4F99838883C558D040C95793
:10093000DF4F99838883C758D040FE013196CE019E
:10094000C196CE2EBF2E168217823C96E817F90765
:10095000D1F721E531E03A83298346E04B8384E0F7
:1009600091E09D838C834E831F82188640E450E083
:100970005A8749875C874B873E872D8745E04F879D
:10098000998B888B4A8B1B8A1C8A40E250E05E8BD5
:100990004D8B588F4F8B3A8F298F44E04B8F9D8F13
:1009A0008C8F4E8F1F8E18A240E150E05AA349A3AE
:1009B0005CA34BA343E050E05AAB49ABE8961FAEB3
:1009C000E897E9961FAEE997E3963FAF2EAFE3971E
:1009D000E4964FAFE497E6969FAF8EAFE697E79623
:1009E0004FAFE79748E050E0EB965FAF4EAFEB9725
:1009F000ED965FAF4EAFED97AC961FAEAC97AD9650
:100A00001FAEAD97A7963FAF2EAFA79722E0A8964F
:100A10002FAFA897AA969FAF8EAFAA97AB962FAF8E
:100A2000AB9784E090E0AF969FAF8EAFAF97E19623
:100A30009FAF8EAFE197D12C10E000E08091500184
:100A4000882311F1109250018F2D9E2D0E94680372
:100A500061E0CE0187579F4F0E94470361E0CE01BE
:100A600083589F4F0E9447038C2D9B2D0E94680343
:100A700061E0CE018F589F4F0E94470361E0CE0195
:100A80008B599F4F0E94470380910401909105016B
:100A900080179107D1F0009104011091050181E0C8
:100AA000909102019D11D0900201882339F29801A2
:100AB00080E120FD0CC04398419A419836952795D6
:100AC0008150B9F7429A4298B9CF80E0E9CF439A72
:100AD000F3CF8FE491E00C942E03EE0FFF1F0590EF
:0A0AE000F491E02D0994F894FFCF83
:100AEA0003037F7F40400302010023000100130239
:0E0AFA0000000305040003030410030503209D
:00000001FF
