:100000000C9444000C9461000C9461000C942D023B
:100010000C9451020C9461000C9461000C946100EA
:100020000C9461000C9461000C9461000C946100CC
:100030000C9461000C948F010C9461000C9461008D
:100040000C9461000C9461000C9461000C946100AC
:100050000C9461000C9461000C9461000C9461009C
:100060000C9461000C94610000FF0100010000FF8E
:10007000FF0000010001FF0000FF0100010000FF80
:10008000FF0000010001FF0011241FBECFEFD8E0E8
:10009000DEBFCDBF11E0A0E0B1E0E0E7F9E002C0D3
:1000A00005900D92A432B107D9F721E0A4E2B1E0A6
:1000B00001C01D92AE32B207E1F70E943B030C94DF
:1000C000B6040C94000084EA8093BC008091BC00CC
:1000D00087FFFCCF8091B900887F883051F08091F4
:1000E000B900887F803129F08091B900887F90E045
:1000F000089590E080E008958093BB0084E88093A9
:10010000BC008091BC0087FFFCCF8091B900887F44
:10011000883151F08091B900887F803429F0809136
:10012000B900887F90E0089590E080E008952FB7AF
:10013000F894909128018923909128019827909311
:1001400028012FBF08952FB7F89490912701892394
:10015000909127019827909327012FBF08952FB7DB
:10016000F8949091260189239091260198279093E5
:1001700026012FBF0895089508950F93FC01718300
:100180006083428334832383058316820F9108950D
:10019000DC01E6B196B116968C9116978F70EE0F32
:1001A000E4709170E92B24E0829FC0011124855FE7
:1001B0009E4FE80FF92FF11D808116968C93807366
:1001C00008959C0187B1806387B988B1662379F06F
:1001D000806388B987B18F7C87B92130310549F0B8
:1001E0002230310551F088E4232B21F008958F7CD3
:1001F000F0CF88E18093B800F9CF8CE0FBCFFF927D
:100200000F931F93CF93DF93F82E8B01C42FD22F20
:100210000E946300FC01892B19F58F2D880F0E9425
:100220007C00FC01892BE1F4D801A8014C0F511D81
:1002300094E84A175B07D9F08D918093BB009093A7
:10024000BC008091BC0087FFFCCF8091B900887F03
:10025000883279F38091B900887F59F3E82FF0E074
:10026000CF01DF91CF911F910F91FF900895D11190
:10027000F7CF84E98093BC00F3CF0F931F93CF9304
:10028000DF93082FEB01142F0E9463009C01892B40
:10029000E9F5802F880F81600E947C009C01892BEA
:1002A000A9F5FE0170E060E0812F8150990BAC014F
:1002B00094EC64177507ACF49093BC008091BC007B
:1002C00087FFFCCF8091B900887F803539F080911D
:1002D000B900887F81936F5F7F4FEBCF8091BB0028
:1002E000F9CFC40FD51F84E88093BC008091BC0077
:1002F00087FFFCCF8091B900887F883569F08091B5
:10030000B900887F888384E98093BC00C901DF91AC
:10031000CF911F910F9108958091BB00F3CF8F93E0
:100320009F9381E0809324018CED9FEF9093850053
:10033000809384009F918F911895CF93DF930F92B4
:10034000CDB7DEB78091010194E0899FF0011124BF
:10035000EF70E093010183B18983898140E080FDE2
:1003600002C042E050E08981869591E08927282FDC
:100370002170242BE22BE09301010E2E000CFF0BC9
:10038000E858FF4FE49180912A01E80FE43064F0CF
:1003900010922A0180910301882351F0809103017A
:1003A00081508093030104C0ED3F34F0E0932A01B3
:1003B0000F90DF91CF91089510922A01809103014F
:1003C0008F37B1F3809103018F5FEBCFCF93DF9332
:1003D0000F92CDB7DEB78091000194E0899FF001C4
:1003E0001124EF70E093000186B18983898140E098
:1003F00081FD02C042E050E089818095282F217064
:10040000242BE22BE09300010E2E000CFF0BE85989
:10041000FF4FE49180912901E80FE43064F01092DD
:10042000290180910301882351F0809103018150BB
:100430008093030104C0ED3F34F0E09329010F9055
:10044000DF91CF91089510922901809103018F3798
:10045000B1F3809103018F5FEBCF1F920F920FB624
:100460000F9211242F933F934F935F936F937F933A
:100470008F939F93AF93BF93EF93FF930E949D0140
:10048000FF91EF91BF91AF919F918F917F916F916C
:100490005F914F913F912F910F900FBE0F901F9042
:1004A00018951F920F920FB60F9211242F933F931E
:1004B0004F935F936F937F938F939F93AF93BF936C
:1004C000EF93FF930E94E601FF91EF91BF91AF91EF
:1004D0009F918F917F916F915F914F913F912F915C
:1004E0000F900FBE0F901F9018958CED9FEF90937B
:1004F0008500809384001092800085E080938100C5
:1005000081E080936F000895E8E6F0E080818360E9
:100510008083ECE6F0E0808183608083EBE6F0E0AE
:1005200080818360808308950E9475020C94840208
:1005300085B18F6185B988B1806388B98BB18C6FC3
:100540008BB93B9A3A9A519A2598249823982298E5
:1005500021982098399838985798569855985498D3
:100560005398529808950E94940261E081E090E0CF
:100570000E94E1000E9498021092C10078940895B0
:100580001F93CF93DF93EC011E81113081F4888596
:100590000E949700882359F0EB81FC818081998526
:1005A000892780838F8181278F8381E009C08E8195
:1005B000823051F488850E94A30081110BC080E035
:1005C000DF91CF911F9108958430C9F788850E94EB
:1005D000AF00F3CFEB81FC818081998589278083EF
:1005E0008F8191E08927E0CFCF92DF92EF92FF9247
:1005F0000F931F93CF93DF93EC017C016C0110E00C
:1006000000E08E8D9F8D081719075CF5C6010E94CA
:10061000C0029AE0C90ED11C811103C00F5F1F4FA9
:10062000F0CF04301105ECF430E020E04E8D5F8D0A
:1006300024173507BCF4D7011396ED91FC9114975C
:1006400019969C9140810217130741F4942B9083D3
:100650002F5F3F4FBAE0EB0EF11CE8CF909594234B
:10066000F6CF80E0DF91CF911F910F91FF90EF9037
:10067000DF90CF900895CDB7DEB7C056D1090FB641
:10068000F894DEBF0FBECDBF0E94B30269E270E0F6
:100690007AA369A342E04BA324E031E03DA32CA35D
:1006A00017E01EA384E08FA318A689A790E89AA755
:1006B0007CA76BA7F3E0FDA73FA72EA756E0F52E7A
:1006C000F8AA89AB1AAAE8E0EBAB00E40CAB7EAB6E
:1006D0006DAB8FAB39AF28AFA5E0DA2EDAAE8BAFBA
:1006E0001CAE50E15DAFB0E2EB2EEEAEA3E0B0E0A9
:1006F0002196BFAFAEAF21977A836983DB823D83BA
:100700002C838E838F831886E9865A877C876B8734
:10071000FD863F872E87F88B898B1A8A0B8BEC8B93
:100720007E8B6D8B1F8B398F288F4A8F8B8F1C8E02
:100730009D8F8E8FB8A3AF8F6D961FAE6D9763E2BE
:1007400070E067967FAF6EAF679768964FAF689718
:100750006A963FAF2EAF6A9791E06B969FAF6B970B
:100760006C969FAF6C976E968FAF6E976F964FAFEC
:100770006F9763961FAE63972D967FAF6EAF2D97E1
:100780002E96FFAF2E9760963FAF2EAF6097619683
:100790009FAF619762969FAF62976496EFAF649741
:1007A00065964FAF659729961FAE299723967FAF21
:1007B0006EAF239724968FAF249726963FAF2EAF28
:1007C000269727961FAE279728969FAF28972A9699
:1007D0005FAF2A972B969FAF2B9710E000E0F12C8C
:1007E000E12CD0902401DD20E1F31092240153B1DB
:1007F000A0912D015A27452F409536B1F0912C013B
:100800003F27732F709599B1E0912B019E27692F97
:100810006095C0900A01842F8C21809580930A01F5
:10082000209109014223482740930901B090080113
:10083000272F2B21822F809580930801209107017B
:100840002723282720930701B0910601862F8B23A9
:10085000782F709570930601809105018623872774
:10086000809305015C29509545233B29309523232E
:100870009B2B909589235A2F542750932D013F2F5E
:10088000322730932C019E2F982790932B01609153
:1008900028014523462B409328014091270123231B
:1008A000242B20932701209126018923822B8093DA
:1008B0002601CE0181960E94F402CE0101960E948B
:1008C000F402CE018B5A9F4F0E94C002CE01855B7D
:1008D0009F4F0E94C002CE018F5B9F4F0E94C002BB
:1008E000C8018F709927892B99F580910401E8162A
:1008F00091F1E0900401809103018F1571F1C09096
:10090000030129968FAD2997882329F08FE58F154C
:1009100040F180E2F80EA096FFAEA097A196EFAE50
:10092000A19720E042E0BE01615A7F4F80E10E9422
:10093000FF00DD2061F09E2D88E090FD15C04398FA
:10094000429A429896958150C1F7599A5998FC2C31
:100950000F5F1F4F46CFD12CCECFCF2CDD20C1F360
:10096000DACF8FE7F82ED7CF439AEACFF894FFCFAC
:1009700003037F7F90FFFFFFFFFFFF0302010023C0
:100980000001001302000003050400030304100328
:04099000050320003B
:00000001FF
